{
    "contractName": "Blogs",
    "abi": [
        {
            "constant": true,
            "inputs": [
                {
                    "name": "",
                    "type": "uint256"
                }
            ],
            "name": "users",
            "outputs": [
                {
                    "name": "",
                    "type": "address"
                }
            ],
            "payable": false,
            "stateMutability": "view",
            "type": "function"
        },
        {
            "constant": true,
            "inputs": [],
            "name": "userId",
            "outputs": [
                {
                    "name": "",
                    "type": "uint16"
                }
            ],
            "payable": false,
            "stateMutability": "view",
            "type": "function"
        },
        {
            "constant": true,
            "inputs": [
                {
                    "name": "",
                    "type": "uint256"
                }
            ],
            "name": "blogs",
            "outputs": [
                {
                    "name": "id",
                    "type": "uint256"
                },
                {
                    "name": "heading",
                    "type": "string"
                },
                {
                    "name": "content",
                    "type": "string"
                },
                {
                    "name": "owner",
                    "type": "address"
                }
            ],
            "payable": false,
            "stateMutability": "view",
            "type": "function"
        },
        {
            "constant": false,
            "inputs": [],
            "name": "signUp",
            "outputs": [],
            "payable": true,
            "stateMutability": "payable",
            "type": "function"
        },
        {
            "constant": true,
            "inputs": [],
            "name": "blogCount",
            "outputs": [
                {
                    "name": "",
                    "type": "uint16"
                }
            ],
            "payable": false,
            "stateMutability": "view",
            "type": "function"
        },
        {
            "constant": false,
            "inputs": [
                {
                    "name": "heading",
                    "type": "string"
                },
                {
                    "name": "content",
                    "type": "string"
                }
            ],
            "name": "addBlog",
            "outputs": [],
            "payable": false,
            "stateMutability": "nonpayable",
            "type": "function"
        },
        {
            "inputs": [],
            "payable": true,
            "stateMutability": "payable",
            "type": "constructor"
        },
        {
            "anonymous": false,
            "inputs": [
                {
                    "indexed": false,
                    "name": "id",
                    "type": "uint256"
                },
                {
                    "indexed": false,
                    "name": "heading",
                    "type": "string"
                },
                {
                    "indexed": false,
                    "name": "content",
                    "type": "string"
                },
                {
                    "indexed": false,
                    "name": "owner",
                    "type": "address"
                }
            ],
            "name": "BlogCreated",
            "type": "event"
        },
        {
            "anonymous": false,
            "inputs": [
                {
                    "indexed": false,
                    "name": "userId",
                    "type": "uint256"
                },
                {
                    "indexed": false,
                    "name": "user",
                    "type": "address"
                }
            ],
            "name": "Users",
            "type": "event"
        }
    ],
    "bytecode": "60806040526000805461ffff199081169091556002805490911660651790556108108061002d6000396000f3006080604052600436106100775763ffffffff7c0100000000000000000000000000000000000000000000000000000000600035041663365b98b2811461007c57806358975919146100bd57806380f052d8146100e9578063bf96ae6314610219578063e882429914610223578063ebbca87a14610238575b600080fd5b34801561008857600080fd5b506100946004356102cf565b6040805173ffffffffffffffffffffffffffffffffffffffff9092168252519081900360200190f35b3480156100c957600080fd5b506100d2610304565b6040805161ffff9092168252519081900360200190f35b3480156100f557600080fd5b5061010160043561030e565b6040518085815260200180602001806020018473ffffffffffffffffffffffffffffffffffffffff1673ffffffffffffffffffffffffffffffffffffffff168152602001838103835286818151815260200191508051906020019080838360005b8381101561017a578181015183820152602001610162565b50505050905090810190601f1680156101a75780820380516001836020036101000a031916815260200191505b50838103825285518152855160209182019187019080838360005b838110156101da5781810151838201526020016101c2565b50505050905090810190601f1680156102075780820380516001836020036101000a031916815260200191505b50965050505050505060405180910390f35b610221610463565b005b34801561022f57600080fd5b506100d2610552565b34801561024457600080fd5b506040805160206004803580820135601f810184900484028501840190955284845261022194369492936024939284019190819084018382808284375050604080516020601f89358b018035918201839004830284018301909452808352979a99988101979196509182019450925082915084018382808284375094975061055c9650505050505050565b60018054829081106102dd57fe5b60009182526020909120015473ffffffffffffffffffffffffffffffffffffffff16905081565b60025461ffff1681565b6003602090815260009182526040918290208054600180830180548651600293821615610100026000190190911692909204601f8101869004860283018601909652858252919492939092908301828280156103ab5780601f10610380576101008083540402835291602001916103ab565b820191906000526020600020905b81548152906001019060200180831161038e57829003601f168201915b50505060028085018054604080516020601f600019610100600187161502019094169590950492830185900485028101850190915281815295969594509092509083018282801561043d5780601f106104125761010080835404028352916020019161043d565b820191906000526020600020905b81548152906001019060200180831161042057829003601f168201915b5050506003909301549192505073ffffffffffffffffffffffffffffffffffffffff1684565b66038d7ea4c68000341161047657600080fd5b604051339060009066038d7ea4c680009082818181858883f193505050501580156104a5573d6000803e3d6000fd5b5060018054808201825560008290527fb10e2d527612073b26eecdfd717e6a320cf44b4afac2b0732d9fcbe2b7fa0cf601805473ffffffffffffffffffffffffffffffffffffffff1916339081179091556002805461ffff808216909401841661ffff19909116179081905560408051919093168152602081019190915281517fd61aadedfe01a4d380a2f79680db4e5613acc73e7395e49d772c80eee53337d6929181900390910190a1565b60005461ffff1681565b6000805461ffff198116600161ffff928316810183169190911780845560408051608081018252919093168082526020808301888152838601889052336060850152918652600381529390942081518155935180519194936105c393850192910190610749565b50604082015180516105df916002840191602090910190610749565b50606091820151600391909101805473ffffffffffffffffffffffffffffffffffffffff191673ffffffffffffffffffffffffffffffffffffffff909216919091179055600080546040805161ffff909216808352339483018590526080602080850182815289519286019290925288517f1514f95cd8320176cd4de8b67a3494e77b3dfa3c5d9c7698523216784e3559269793968a968a969094939085019260a0860192918901918190849084905b838110156106a757818101518382015260200161068f565b50505050905090810190601f1680156106d45780820380516001836020036101000a031916815260200191505b50838103825285518152855160209182019187019080838360005b838110156107075781810151838201526020016106ef565b50505050905090810190601f1680156107345780820380516001836020036101000a031916815260200191505b50965050505050505060405180910390a15050565b828054600181600116156101000203166002900490600052602060002090601f016020900481019282601f1061078a57805160ff19168380011785556107b7565b828001600101855582156107b7579182015b828111156107b757825182559160200191906001019061079c565b506107c39291506107c7565b5090565b6107e191905b808211156107c357600081556001016107cd565b905600a165627a7a72305820323380fa980b09070555db911d0e49812f95c4552450f7fa48871de2cd00a4ea0029",
    "sourcePath": "/home/punitj1221/Blockchain Blogs/contracts/Blog.sol",
    "compiler": {
        "name": "solc",
        "version": "0.4.25+commit.59dbf8f1"
    },
    "functionHashes": {
        "addBlog(string,string)": "ebbca87a",
        "blogCount()": "e8824299",
        "blogs(uint256)": "80f052d8",
        "signUp()": "bf96ae63",
        "userId()": "58975919",
        "users(uint256)": "365b98b2"
    },
    "gasEstimates": {
        "creation": {
            "codeDepositCost": "412800",
            "executionCost": "40876",
            "totalCost": "453676"
        },
        "external": {
            "addBlog(string,string)": "infinite",
            "blogCount()": "487",
            "blogs(uint256)": "infinite",
            "signUp()": "infinite",
            "userId()": "421",
            "users(uint256)": "699"
        }
    }
}